:100000000C945D000C947A000C947A000C947A00A5
:100010000C947A000C947A000C947A000C947A0078
:100020000C947A000C947A000C947A000C947A0068
:100030000C947A000C947A000C947A000C947A0058
:100040000C940C010C947A000C947A000C947A00B5
:100050000C947A000C947A000C947A000C947A0038
:100060000C947A000C947A00000000080002010051
:100070000003040700000000000000000000000072
:10008000250028002B0000000000240027002A0083
:10009000040404040404040402020202020203032E
:1000A0000303030301020408102040800102040836
:1000B0001020010204081020F50111241FBECFEF0B
:1000C000D8E0DEBFCDBF21E0A0E0B1E001C01D92CD
:1000D000A831B207E1F710E0CDE5D0E004C02197E8
:1000E000FE010E94FF01CC35D107C9F70E945601DD
:1000F0000C9405020C94000090E0FC01EC55FF4FBD
:100100002491FC01E057FF4F8491882399F090E0FF
:10011000880F991FFC01EA57FF4FA591B491FC018C
:10012000E458FF4F859194918FB7F894EC91E22BAE
:10013000EC938FBF089590E0FC01E859FF4F349194
:10014000FC01EC55FF4F2491FC01E057FF4FE49177
:10015000EE2309F43BC0332339F1333091F038F406
:100160003130A9F0323001F584B58F7D12C03730BF
:1001700091F03830A1F03430B9F4809180008F7D57
:1001800003C0809180008F77809380000DC084B57C
:100190008F7784BD09C08091B0008F7703C08091B4
:1001A000B0008F7D8093B000F0E0EE0FFF1FE458A9
:1001B000FF4FA591B4918FB7F894EC91611103C0F2
:1001C00020952E2301C02E2B2C938FBF08953FB76F
:1001D000F8948091050190910601A0910701B091DA
:1001E000080126B5A89B05C02F3F19F00196A11D57
:1001F000B11D3FBFBA2FA92F982F8827820F911DBD
:10020000A11DB11DBC01CD0142E0660F771F881F03
:10021000991F4A95D1F708951F920F920FB60F922A
:1002200011242F933F938F939F93AF93BF9380910C
:10023000010190910201A0910301B091040130915C
:10024000000123E0230F2D3720F40196A11DB11DDD
:1002500005C026E8230F0296A11DB11D20930001C1
:100260008093010190930201A0930301B0930401D4
:100270008091050190910601A0910701B0910801BC
:100280000196A11DB11D8093050190930601A093D5
:100290000701B0930801BF91AF919F918F913F915A
:1002A0002F910F900FBE0F901F901895789484B5E2
:1002B000826084BD84B5816084BD85B5826085BD62
:1002C00085B5816085BD80916E00816080936E00F0
:1002D00010928100809181008260809381008091E2
:1002E0008100816080938100809180008160809393
:1002F00080008091B10084608093B1008091B00053
:1003000081608093B00080917A00846080937A004D
:1003100080917A00826080937A0080917A00816077
:1003200080937A0080917A00806880937A0010929E
:10033000C10088E00E947C00C0E0D0E00EE810E040
:100340008FE8E82EF12C60E088E00E949B000E947C
:10035000E70080900F0190901001A0901101B090E3
:100360001201DC01CB0188199909AA09BB09809304
:100370000B0190930C01A0930D01B0930E0110930B
:10038000150100931401F0921701E09216012091DB
:10039000130121110EC08E389105A105B105FCF0A5
:1003A00061E0809109010E949B0081E0809313012C
:1003B0000CC08F389105A105B1058CF060E08091EB
:1003C00009010E949B00109213010E94E7006093B4
:1003D0000F017093100180931101909312012097E7
:1003E00009F4B1CF0E940000AECF89E00E947C00EA
:1003F00089E090E090930A01809309010895EE0F3F
:0E040000FF1F0590F491E02D0994F894FFCFB2
:00000001FF
